:020000040800F2
:10000000D8950120196F0008056D0008076D0008DC
:10001000096D00080B6D00080D6D00080000000060
:100020000000000000000000000000000F6D00084C
:10003000116D000800000000136D0008156D000828
:10004000696F00086D6F0008716F0008756F000818
:10005000796F00087D6F0008816F0008856F0008C8
:10006000896F00088D6F0008916F0008956F000878
:10007000996F00089D6F0008A16F0008A56F000828
:10008000A96F0008AD6F0008B16F0008B56F0008D8
:10009000B96F0008BD6F0008C16F0008C56F000888
:1000A000C96F0008CD6F0008D16F0008D56F000838
:1000B000D96F0008DD6F0008E16F0008E56F0008E8
:1000C000E96F0008ED6F0008F16F0008F56F000898
:1000D000F96F0008FD6F0008017000080570000846
:1000E000097000080D7000081170000815700008F4
:1000F000197000081D7000082170000825700008A4
:10010000297000082D700008317000083570000853
:10011000397000083D700008417000084570000803
:10012000497000084D7000085170000855700008B3
:10013000597000085D700008617000086570000863
:10014000697000086D700008717000081D6D00086E
:1001500075700008797000087D70000881700008D3
:1001600085700008897000088D7000089170000883
:1001700095700008997000089D700008000000004C
:10018000A1700008A57000084178007850EA0120AD
:1001900080B27047C178827852EA0122417851EAF0
:1001A0000221007850EA012070470170401C89B29A
:1001B000090A0170401C70470170401C090A017057
:1001C000401C090A0170401C090A0170401C70475C
:1001D000002A06D00B780370491C401C521E002ACE
:1001E000F8D170470170401C521E002AFAD17047A6
:1001F00010B4030000201C780878201A491C5B1CEE
:10020000521E002A01D00028F5D010BC704700E033
:10021000401C0278002A02D002788A42F8D1007885
:10022000704770B4020000231C0001E00123641C2D
:10023000052C16D2DFF88C5A200128580028F5D05A
:10024000200128581668B042F1D1200128444068A6
:100250009668B042EBD12001284480685569A842D5
:10026000E5D1052C08D1002B01D1022901D10020B4
:1002700000E01220C0B20DE0002907D1DFF8440AE7
:10028000210108448089B0F5807F01D1102000E071
:100290000020C0B270BC7047002100E0491C052955
:1002A00005D2DFF8200A0A0180580028F6D1052976
:1002B00001D1002000E00120704730B4020000238B
:1002C00000E05B1C052B12D2DFF8F8091C01045971
:1002D0001568AC42F5D11C01044464689568AC42D1
:1002E000EFD11C01204480685469A042E9D1052B5C
:1002F0001FD1002300E05B1C052B05D2DFF8C409E9
:100300001C0100590028F6D1052B01D100202DE059
:10031000DFF8B00914681D01445194681D010544BB
:100320006C6052691C010444A26000221C0120443C
:100330008281002908D0DFF88C091A0110448089D5
:10034000002801D0002011E0002902D04FF4807075
:1003500005E0DFF87009190108448089401CDFF8C6
:1003600064191A01114488815B1C180030BC704765
:10037000401E05281AD2DFF84C39010119448A8938
:10038000110089B2B1F5807F00D10022110089B23D
:10039000002900D0521E010119448A8192B2002A1C
:1003A00002D1002100011950002000E00220C0B25B
:1003B000704710B4002109E0DFF808290B01D35879
:1003C000834202D100230C011351491C0529F3D3A8
:1003D00010BC7047F8B505000024E878002820D04C
:1003E000EE6A0123320015F13001687801F0A3F9BB
:1003F000002801D0012414E00020E870286A301A97
:10040000A96988420DD2AF7809E0A869861901234D
:10041000320015F13001687801F08DF97F1E022F4E
:10042000F3D22000C0B2F2BD70B504000D0000266A
:10043000E06A854214D02000FFF7CCFF06003000B0
:10044000C0B200280CD101232A0014F130016078D9
:1004500001F062F9002802D05FF0FF350126E56265
:100460003000C0B270BD38B504002000FFF7B2FF05
:1004700005002800C0B200283CD12078032831D1E3
:10048000207901282ED14FF40072002114F13000A0
:10049000FFF7A8FE4AF6552104F22E20FFF785FE4D
:1004A000DFF87C1914F13000FFF786FEDFF87419CD
:1004B00014F50570FFF780FE216914F50670FFF74B
:1004C0007BFEE16814F50770FFF776FEE069401CDB
:1004D000E0620123E26A14F13001607801F02BF947
:1004E0000020207100220021607801F033F90028FB
:1004F00000D001252800C0B232BD891E4269921E7B
:10050000914201D3002004E04289806A02FB01018C
:10051000080070472DE9F0410C000568022C02D359
:100520006869844202D35FF0010859E05FF0FF3848
:100530002878012804D051D303283CD02AD34DE099
:10054000270017EB5707296A11EB57212800FFF7FF
:100550006BFF002844D1F805C00D284490F83060A6
:100560007F1C296A11EB57212800FFF75DFF002847
:1005700036D1FF05FF0D05EB070090F8300056EA75
:100580000026E00702D53609B04602E03605360DF2
:10059000B04625E0296A11EB14212800FFF744FF3B
:1005A00000281DD16000C005C00D28443030FFF781
:1005B000EBFD804614E0296A11EBD4112800FFF707
:1005C00033FF00280CD1A000C005C00D28443030F6
:1005D000FFF7E0FD804628F0704801E05FF0010879
:1005E0004046BDE8F0812DE9F04107000D001600FE
:1005F0000224022DC0F084807869854280F08080DA
:100600003878012804D07BD303285AD042D377E02E
:10061000A84618EB5808396A11EB58213800FFF743
:1006200003FF04002000C0B2002869D15FEAC8506F
:10063000C00D3844303018F10108E90705D50178BC
:1006400011F00F0151EA061100E0310001700120A4
:10065000F870396A11EB58213800FFF7E5FE040005
:100660002000C0B200284BD15FEAC8585FEAD858D2
:1006700007EB08003030E90701D5360906E00178BC
:1006800011F0F001360A16F00F060E430670012035
:10069000F87035E0396A11EB15213800FFF7C4FE18
:1006A00004002000C0B200282AD1310089B26800BD
:1006B000C005C00D38443030FFF777FD0120F870D9
:1006C0001EE0396A11EBD5113800FFF7ADFE0400CA
:1006D0002000C0B2002813D1A800C005C00D3844C6
:1006E0003030FFF757FD000F60F31F763100A80090
:1006F000C005C00D38443030FFF75EFD0120F870B2
:100700002000C0B2BDE8F081F8B505000F0011006F
:1007100000202E68022F02D37069874201D3022085
:1007200032E0002928D05FF0FF323000FFF75BFF96
:100730000100C9B200291FD0C0B225E0012C24D08D
:1007400014F1010F23D0002239003000FFF74BFFD6
:100750000100C9B200291CD130697169891E884223
:1007600006D23069401C3061307950F001003071A0
:1007700027007069874206D239002800FFF7CAFEB9
:100780000400002CDAD10020F2BD0220FCE7012099
:10079000FAE7C0B2F8E72DE9F04107000C003E6827
:1007A000002C07D1F568002D02D07069854210D366
:1007B00001250EE021003800FFF7ACFE022801D22F
:1007C00001204FE010F1010F4CD07169884249D3EC
:1007D0002500A84618F101087069804503D35FF031
:1007E000020845450ED341463800FFF793FE002826
:1007F0000AD001282CD010F1010F29D0A845E9D149
:1008000000202FE000202DE05FF0FF324146300055
:10081000FFF7E9FE0100C9B2002906D1002C04D07F
:10082000424621003000FFF7DEFE0100C9B2002978
:100830000FD1C6F80C807069801E3169884202D3DE
:100840003069401E3061307950F00100307108E0AD
:1008500008E0C0B2012802D15FF0FF3801E05FF08C
:1008600001084046BDE8F0810368C06A021D490ADC
:100870005889B1FBF0F003E0884207D3401A121DFB
:100880001168121D0029F7D1002001E01168081835
:1008900070472DE9F04105000E002F68B6F5001FE6
:1008A00002D216F01F0F01D0022045E06E61AC6845
:1008B000002C03D13878032800DB7C6A002C09D196
:1008C000300040093989884201D3022034E0786A37
:1008D000E86120E0B7F80A804FF4007000FB08F8E8
:1008E00006E0022C10D3786984420DD2B6EB0806DC
:1008F00046450BD321002800FFF70CFE040014F13D
:10090000010FEED1012017E0022015E02100380090
:10091000FFF7F3FDE861AC61E869002801D102202E
:100920000AE0E86910EB5620E861F605F60D07EBE2
:100930000600303028620020BDE8F0812DE9F0414A
:1009400006000C00D6F8008077692037F06900288F
:1009500002D0B7F5001F01D304207EE0F80574D162
:10096000F069401CF061B069002809D138004009E5
:10097000B8F80810884268D30020F06104206CE0C9
:10098000B8F80A00401E10EA572F5ED1B169300056
:10099000FFF7C0FD0500022D01D202205DE015F138
:1009A000010F01D1012058E0D8F81400854246D348
:1009B000002C03D10020F06104204EE0B16930002A
:1009C000FFF7E9FE0500002D01D1072045E0012DCC
:1009D00001D1022041E015F1010F01D101203CE0DD
:1009E0004046FFF7F7FC002801D0012035E04FF426
:1009F0000072002118F13000FFF7F4FB00242900F9
:100A00004046FFF77AFDC8F82C0005E0641CD8F8D2
:100A10002C00401CC8F82C00B8F80A00844209D207
:100A2000012088F803004046FFF7D4FC0028EDD0F1
:100A3000012012E0D8F82C00041BC8F82C40B56146
:100A400029004046FFF759FDF0617761FF05FF0D72
:100A500008EB0700303030620020BDE8F081F8B5C7
:100A600004000D00266800212000FFF712FF01009E
:100A7000C9B200291ED10027E1693000FFF7D4FC7C
:100A80000100C9B200290BD1216A0978E52903D0F8
:100A9000216A0978002904D17F1CAF4202D109E004
:100AA00008E0002701212000FFF748FF0100C9B23C
:100AB0000029E1D00100C9B2042900D10720C0B249
:100AC000F2BD70B504000D0015F11A00FFF75CFBD4
:100AD00006002078032805D115F11400FFF754FB18
:100AE00056EA0046300070BD70B504000D001600D7
:100AF000310089B215F11A00FFF757FB207803285F
:100B000006D1360C310089B215F11400FFF74DFB08
:100B100070BD70B50400256800212000FFF7B9FE04
:100B20000100C9B2002920D0C0B22CE0206A0078B0
:100B3000C0B2002823D0206AC07A10F03F00A07114
:100B4000206AC07A000707D40B2214F12401206A1E
:100B5000FFF74EFB002814D000212000FFF7EEFE27
:100B600006003000C0B200280BD1E1692800FFF771
:100B70005BFC06003000C0B20028D7D001E004269C
:100B8000FFE73000C0B270BD70B5040026680121D7
:100B90002000FFF764FF05002800C0B2002815D12F
:100BA000E1693000FFF740FC05002800C0B20028D2
:100BB0000CD120220021206AFFF714FB0B2214F134
:100BC0002401206AFFF704FB0120F0702800C0B266
:100BD00070BD2DE9F0470D002E6810F124070B229F
:100BE00020213800FFF7FEFA0024A1465FF0080834
:100BF00002E008245FF00B0816F809A019F10109BA
:100C00005046C0B2212812DB5046C0B22F2803D074
:100C10005046C0B25C2812D116F809002F2803D024
:100C200016F809005C2809D119F10109F4E706EB6F
:100C300009002860002C32D106203FE0F7E750463B
:100C4000C0B22E2801D0444509D3B8F10B0F04D00F
:100C50005FFA8AFABAF12E0FCBD006202EE050466A
:100C6000C0B2802806DBDFF8040A5FFA8AFA504433
:100C700010F880AC5146C9B2DFF8F409FFF7C7FAA3
:100C800000280AD15046C0B261381A2801D2BAF100
:100C9000200A07F804A0641CAEE706200EE03878AE
:100CA000E52801D1052038705FFA8AFABAF1210FE0
:100CB00001DA042000E00020F8720020BDE8F0878F
:100CC00000000000FC73012073B5040025002E68AD
:100CD00002E00198401C0190019800782F28F8D07C
:100CE000019800785C28F4D00020A8600198007872
:100CF00020281FD2802084F82F0000212000FFF739
:100D0000C8FD2AE02000FFF704FF94F82F2001001F
:100D1000C9B2002917D151071DD4A879C0061BD527
:100D20006069C005C00D304410F130013000FFF79C
:100D3000C8FEA86001A92000FFF74BFF0100C9B25F
:100D40000029DFD009E00100C9B2042902D151070E
:100D500000D4052001E000E00520C0B276BD10B44B
:100D600002005FF0FF30116800291AD0146800E01B
:100D7000641C2178212902D321783A29F8D12178DD
:100D80003A290DD11368197830395B1C0A2906D22B
:100D9000A34204D1002902D10800611C116000E0C7
:100DA000002010BC704710B504000020E0705FF018
:100DB000FF30E0622000FFF737FB002801D004205D
:100DC0002CE004F22E20FFF7DFF94AF65521884285
:100DD00001D0032022E094F83000E92807D094F8ED
:100DE0003000EB2819D194F83200902815D114F175
:100DF0006600FFF7CFF920F07F40DFF878188842CF
:100E000001D100200AE014F18200FFF7C3F9DFF8F6
:100E10006818884201D1002000E0022010BD0000C7
:100E20005252614172724161F8B584B00F001400F2
:100E300000213960FFF793FF0600002E01D50B203B
:100E400061E1DFF8380850F82650002D01D10C2060
:100E500059E13D6014F0FE04287800280DD0687830
:100E600000F032FCC10708D4E4B2002C03D04007E4
:100E700001D50A2047E1002045E1002028706E706E
:100E8000687800F030FCC10701D503203BE1E4B2F3
:100E9000002C03D0400701D50A2034E100242100B2
:100EA0002800FFF780FF0100C9B202292AD10024DF
:100EB00010E000200AE02001284410F5F7710879BD
:100EC0000028F6D011F10800FFF764F9694641F8EF
:100ED0002400641C042CEED30026002E00D0761EC5
:100EE000684650F82640002C04D021002800FFF767
:100EF0005AFF00E003200100C9B2022902DB761C80
:100F0000042EEDD30100C9B2042901D10120FAE079
:100F1000C0B2022801DB0D20F5E015F13B00FFF720
:100F200033F9B0F5007F01D00D20ECE015F146005B
:100F3000FFF72AF90700002F04D115F15400FFF73D
:100F400029F90700AF6195F84000A870A87801283A
:100F500004D0A878022801D00D20D4E0A878474317
:100F600095F83D0068816889002804D068896989FE
:100F7000491E084201D00D20C5E015F14100FFF7E0
:100F800003F92881287A10F00F0F01D00D20BAE064
:100F900015F14300FFF7F8F80600002E04D115F113
:100FA0005000FFF7F7F8060015F13E00FFF7ECF8E8
:100FB0000100080080B2002801D10D20A3E017FA3B
:100FC00081F2288912EB1012964201D20D209AE08C
:100FD000B61A6889B6FBF0F0002801D10D2092E026
:100FE00003264FF6F673984200D2022640F6F673B7
:100FF000984200D20126801C6861EC6114FA81F0ED
:1010000028621219AA623000C0B2032814D115F167
:101010005A00FFF7B9F8002801D00D2073E02889A5
:10102000002801D00D206EE015F15C00FFF7B2F84A
:1010300068626869800016E02889002801D10D20C7
:1010400061E0286A3F186F623000C0B2022802D106
:101050006869400007E0696903204143287D10F07A
:10106000010010EB5100A96900F2FF10B1EB502F05
:1010700001D20D2047E05FF0FF3028612869E86069
:10108000802028713000C0B2032830D115F16000F3
:10109000FFF77AF801282AD1641C21002800FFF705
:1010A000C3F9002823D10020287105F22E20FFF774
:1010B0006BF84AF65521884219D115F13000FFF737
:1010C00069F8DFF8BC15884211D115F50570FFF7F6
:1010D00061F8DFF8B015884209D115F50670FFF701
:1010E00059F8286115F50770FFF754F8E8602E707D
:1010F000DFF894050188491C01800088E8802800F9
:10110000FFF757F9002005B0F0BD70B504000D00E1
:101110000926002C12D0206800280FD02068007803
:1011200000280BD0A0882168C988884206D1206891
:10113000407800F0C9FAC00700D400263000C0B2E1
:10114000002801D1206800E0002028603000C0B2F3
:1011500070BDF3B581B01500029800906846FFF7A6
:10116000FEFD0600002E01D50B2021E0DFF80C75F6
:1011700057F82640002C04D02000FFF71AF9002071
:1011800020700198002802D0002001990870019871
:1011900047F826000198002802D0EDB2012D01D0B9
:1011A000002005E0002201A902A8FFF73DFEC0B221
:1011B000FEBD2DE9F2418DB004001700002C01D1D5
:1011C00009201EE117F03F073A00D2B269460DA888
:1011D000FFF72AFE06003000C0B2002840F0098167
:1011E000009801900D9901A8FFF76EFD06003000F0
:1011F000C0B200280FD19DF83300000601D50626A5
:1012000009E017F0FE0F01D0012100E0002101A844
:10121000FFF707F8060017F01C0F5DD03000C0B2D2
:10122000002810D03000C0B2042809D1FFF734F8EC
:10123000002804D001A8FFF7A7FC060000E0122652
:1012400057F0080709E09DF80A0010F0110F01D0CF
:10125000072602E0780700D508263000C0B2002833
:101260004BD1380749D5DFF82454290009980E30AE
:10127000FEF7A2FF290009981630FEF79DFF2020F7
:101280000999C87209990098FFF71BFC0500002214
:1012900009990098FFF728FC002109981C30FEF7F7
:1012A0008BFF01200099C870002D26D00098D0F83F
:1012B0002C800022290001A8FFF726FA0600300042
:1012C000C0B2002819D141460098FFF7ADF80600DA
:1012D0006D1E0098C56010E03000C0B200280CD12F
:1012E0009DF80A00C00601D5042606E0B80704D51B
:1012F0009DF80A00C00700D507263000C0B20028BC
:1013000016D1380701D557F040070098C06A6062CF
:101310000998A06217F0FE0F01D0012100E0002122
:1013200001A8FEF7CAFF20612069002800D102262B
:101330003000C0B200285CD109990098FFF7C1FBCA
:10134000A06009981C30FEF725FFE0600020E062F5
:10135000009820600098C088A080277500206075E4
:10136000002020620020A0614FF40072002114F1DF
:101370003000FEF737FFB8063BD5E068002838D0CC
:10138000E068A061009847894FF400704743A16866
:10139000E5680BE02000FFF7BDF80100022900D24C
:1013A000022611F1010F00D10126ED1B3000C0B261
:1013B000002801D1AF42EDD3E1613000C0B2002876
:1013C00017D1E80515D00098FFF797F8010000281D
:1013D00001D102260DE011EB552121620123226A81
:1013E00014F130010098407800F096F9002800D000
:1013F00001263000C0B2002801D00020206030005B
:10140000C0B20EB0BDE8F0812DE9FC470600884669
:1014100014001F000020386069463000FFF775FE99
:101420000100C9B2002904D1717D0800C9B20029A8
:1014300001D0C0B2C8E0307DC00701D40720C3E0AE
:10144000F168B069081AA0424FD204004DE010F1D3
:10145000010F6ED0F061F1690098FFF74EF88246F7
:10146000BAF1000F69D015EB0A0AA1465FEA5929C3
:10147000B9F1000F69D00098408919EB0501884245
:1014800004D200984089A946B0EB09094B46524660
:1014900041460098407800F03FF9002851D1307D56
:1014A000000613D5306AB0EB0A0048450ED24FF45F
:1014B000007216F13001306AB0EB0A0A4FF4007086
:1014C00000FB0AFA08EB0A00FEF782FE4FF40070F8
:1014D00000FB09F9C844B06919EB0000B061386835
:1014E00019EB00003860B4EB0904002C6BD0B06934
:1014F000C0054AD1B06900994D896D1E15EA502585
:10150000002DA8D1B069002801D1B0680BE0F06AC5
:10151000002804D0B1693000FFF7A6F903E0F169B3
:101520003000FEF7F7FF022891D2022070750220EA
:101530004AE001207075012046E00220707502200B
:1015400042E00120707501203EE0306A50451AD01B
:10155000307D00060DD50123326A16F13001009866
:10156000407800F0E8F8002825D1307D10F07F00A9
:1015700030750123524616F130010098407800F092
:10158000CBF800281BD1C6F820A0D6F818905FEA47
:10159000C9595FEAD959D9F500794C4500D2A1461D
:1015A0004A46B069C005C00D304410F130014046D4
:1015B000FEF70EFE8EE701207075012004E0012089
:1015C0007075012000E00020BDE8F6877CB50400BE
:1015D00069462000FFF799FD0100C9B2002941D1F9
:1015E000217D49063ED5207D00060FD50123226AC4
:1015F00014F130010098407800F09DF8002801D0E7
:10160000012030E0207D10F07F0020751F4D616AC1
:101610000098FEF709FF0100C9B2002922D1A66A8D
:10162000F07A50F02000F072A26831002068FFF7D5
:101630005BFAE16816F11C00FEF7BEFD290016F109
:101640001600FEF7B9FD002116F11200FEF7ADFD00
:1016500001200099C8700098FEF705FF217D11F068
:10166000BF012175C0B276BD000000002C6C0008DF
:10167000A86E000846415400464154338C75012041
:101680005252614172724161C47501200000C45020
:101690001CB504002000FFF799FF0100C9B2002922
:1016A00010D169462000FFF730FD0100C9B20029C2
:1016B00008D12069FEF75CFE0100C9B2002901D102
:1016C00000212160C0B216BD80B50100294A080082
:1016D000C0B21044007AC9B202EB8101496849687E
:1016E0008847C0B202BD80B502000020214B110026
:1016F000C9B2595C00290DD101201100C9B258545A
:101700001000C0B21844007AD2B203EB82014968DB
:1017100009688847C0B202BD38B50400154D2000E5
:10172000C0B22844007AE4B205EB84046468A4687B
:10173000A047C0B232BD38B504000E4D2000C0B283
:101740002844007AE4B205EB84046468E468A047A6
:10175000C0B232BD10B50300064CC9B21800C0B209
:101760002044007ADBB204EB83035B681B69984773
:10177000C0B210BD7C75012010B50400002C01D151
:1017800001201AE094F83400002804D100202077CA
:10179000200000F02EFE032084F83400200000F02A
:1017A0000DF8002801D0012007E00020A0630020F0
:1017B0002063012084F83400002010BD30B589B0CA
:1017C00004000020039000200490002005900020D9
:1017D0000690002007907620089003A983B0684601
:1017E000182200F06FFE0EBC206800F0EBFEC0B2C5
:1017F000002801D0012023E0DFF84C5500202860AC
:10180000206800F0FEFE01202860200000F08AFC25
:10181000002807D0012184F83410A16B0843A0638D
:1018200001200DE0200000F004FC002807D0012179
:1018300084F83410A16B0843A063012000E000206D
:1018400009B030BD2DE9F04786B006000C00150048
:10185000994601F031FA0700A046002C05D1B06B83
:1018600050F00060B06301203EE196F8340001289A
:1018700040F035810020B063F06D19EB050188421E
:1018800005D2B06B50F00070B06301202CE1032052
:1018900086F8340000203168C862706C012802D0DC
:1018A0004FF4007045434FF40071306800F0E6FEDD
:1018B00000280BD0DFF8941432689163B16B0843B1
:1018C000B063012086F8340001200DE15FF0FF30A5
:1018D00000904FF4007000FB09F0019090200290FE
:1018E0000220039000200490012005906946306892
:1018F00000F0AEFEB9F1020F06D3022030632900DA
:10190000306800F0EDFE05E001203063290030680A
:1019100000F0CDFE00280DD0DFF83014326891635E
:10192000B16B0843B063012086F8340000203063B7
:101930000120D9E0019D0E9C3068406B40F22A31B5
:1019400008423AD13068406B000420D5002D1ED0EB
:101950005FF0000A18E0306800F04BFE88F80000E5
:1019600018F101016D1E0200120A0A70491C6D1E59
:101970000200120C0A70491C6D1E000E087011F155
:1019800001086D1E1AF1010ABAF1080FE3D301F044
:1019900093F9C01BA04201D2002CCDD1DFF8AC03DB
:1019A00031688863B06B50F00040B063012086F866
:1019B000340000203063032096E03068406BC0059F
:1019C00018D5B9F1020F15D3706C032812D0306806
:1019D00000F0D1FE00280DD0DFF87013326891635B
:1019E000B16B0843B063012086F8340000203063F7
:1019F000012079E03068406B00070ED5DFF84C031A
:101A000031688863B06B50F00800B063012086F83D
:101A1000340000203063012066E03068406B8007AE
:101A20000ED5DFF8280331688863B06B50F00200F0
:101A3000B063012086F8340000203063012053E0B9
:101A40003068406B80060ED5DFF80003316888638C
:101A5000B06B50F02000B063012086F83400002005
:101A60003063012040E03068406B80022ED5002DAD
:101A70002CD0306800F0BDFD88F8000018F101019D
:101A80006D1E0200120A0A70491C6D1E0200120C23
:101A90000A70491C6D1E000E087011F101086D1EC0
:101AA00001F00AF9C01BA04201D2002CDBD1DFF803
:101AB0009C0231688863B06B50F00040B063012035
:101AC00086F834000020306301200DE040F23A50E7
:101AD00031688863012086F83400002004E0B06B90
:101AE00050F00050B063012006B0BDE8F0872DE94A
:101AF000F04F87B007000C001500984601F0DCF8A5
:101B00008146A346002C05D1B86B50F00060B86345
:101B1000012016E197F83400012840F00D810020E3
:101B2000B863F86D18EB0501884205D2B86B50F028
:101B30000070B863012004E1032087F8340000201E
:101B40003968C862786C012802D04FF400704543B0
:101B50004FF40071386800F091FD00280BD0DFF8D9
:101B6000EC113A689163B96B0843B863012087F8B8
:101B700034000120E5E05FF0FF3001904FF4007089
:101B800000FB08F0029090200390002004900020B9
:101B900005900120069001A9386800F059FDB8F1C0
:101BA000020F07D3202038632900386800F0CAFDEF
:101BB000060006E0102038632900386800F0A9FD0F
:101BC0000600002E0DD0DFF8840139688863B86BF9
:101BD0000643BE63012087F83400002038630120EB
:101BE000AFE0029D109C3868406B40F21A31084209
:101BF00043D13868406B400429D5002D27D05FF0D1
:101C0000000A21E09BF8000000901BF101006D1E0E
:101C10000099027851EA02210091401C6D1E009942
:101C2000027851EA02410091401C6D1E0099027831
:101C300051EA0261009110F1010B6D1E694638688E
:101C400000F0DAFC1AF1010ABAF1080FDAD301F058
:101C500033F8B0EB0900A04201D2002CC3D1DFF869
:101C6000EC0039688863B86B0643BE63012087F8CF
:101C7000340000203863032063E03868406BC005FF
:101C800018D5B8F1020F15D3786C032812D0386834
:101C900000F071FD00280DD0DFF8B0103A689163B4
:101CA000B96B0843B863012087F83400002038631B
:101CB000012046E03868406B00070ED5DFF88C0045
:101CC00039688863B86B50F00800B863012087F862
:101CD000340000203863012033E03868406B80070F
:101CE0000ED5DFF8680039688863B86B50F00200E1
:101CF000B863012087F8340000203863012020E019
:101D00003868406BC0060ED5DFF84000396888633C
:101D1000B86B50F01000B863012087F83400002041
:101D2000386301200DE040F23A50396888630120A1
:101D300087F83400002004E0B86B50F00050B8631E
:101D4000012007B0BDE8F08FA0802542FF054000CC
:101D500010B4426E920F0A70426E920E12F00F0291
:101D60004A70426E120E12F003028A70426E120C1A
:101D7000CA70426E120A0A71426E4A71826E120D68
:101D8000CA80826E120C12F00F020A72826ED20B9F
:101D900012F001024A72826E920B12F001028A72F4
:101DA000826E520B12F00102CA72826E120B12F096
:101DB00001020A7300224A73426C002A40F09B80A1
:101DC000826E40F6FC7313EA8203C26E53EA92738A
:101DD0000B61C26ED20E12F007020A75C26E120EAD
:101DE00012F007024A75C26E520D12F007028A7590
:101DF000C26E920C12F00702CA75C26ED20B12F0BC
:101E000007020A760A69521C42650122436D0C7E64
:101E100014F00704A41C12FA04F4634343650B7A1C
:101E200013F00F039A408265426D836D5B0A5A433B
:101E3000C2654FF400720266C26E920B12F001028C
:101E40004A76C26ED20912F07F028A7690F86C2030
:101E500012F07F02CA76026FD20F0A77026F520F1A
:101E600012F003024A77026F920E12F007028A778D
:101E7000026F920D12F00F02CA77026F520D12F02C
:101E8000010281F82020002281F82120026F120C2B
:101E900012F0010281F82220026FD20B12F001022F
:101EA00081F82320026F920B12F0010281F82420A6
:101EB000026F520B12F0010281F82520026F120B03
:101EC00012F0010281F82620026F920A12F003023A
:101ED00081F82720026F120A12F0030281F82820ED
:101EE000006FC0F3460081F82900012081F82A0024
:101EF000002010BC7047426C012A15D1826E12047A
:101F000012F47C12C36E52EA13420A610B695B1C25
:101F10004FF4806253434365426DC2654FF40072D3
:101F20008265826D026687E7DFF8A412026891631A
:101F3000816B51F080518163012180F834100120C0
:101F4000D7E7426C0A60826C4A60C26C8A60026D9C
:101F5000CA60426D0A61826D4A61C26D8A61006E1B
:101F6000C8610020704730B589B004000D0003201F
:101F700084F83400606C03281FD0B5F5805F04D16D
:101F8000A06B50F08050A0631BE0B5F5006F06D148
:101F9000200000F037F9A16B0843A06311E0002D89
:101FA00006D1200000F059F9A16B0843A06308E0B6
:101FB000A06B50F00060A06303E0A06B50F0805075
:101FC000A063A06B002808D0DFF8040221688863B2
:101FD000012084F83400012018E060680390A068B4
:101FE0000490E0680590069560690790A0690890E4
:101FF00003A983B06846182200F064FA0EBC20687A
:1020000000F0E0FA012084F83400002009B030BD6F
:102010001CB50400002000906946200000F0DCF8A8
:10202000002802D0A16B0843A0630098C0F34320AE
:1020300016BD18B58FB004000120ADF80C00206863
:1020400000F0E7FA002802D15FF0806068E0606C81
:10205000032819D0206800F055FC002860D1002129
:10206000206800F0F1FA60670421206800F0ECFAC3
:10207000A0670821206800F0E7FAE0670C212068DB
:1020800000F0E2FAC4F88000606C032805D003A9D0
:10209000206800F064FC002842D1606C03281DD049
:1020A000BDF80C002065216D0904206800F041FC9A
:1020B000002835D10021206800F0C6FA60660421AE
:1020C000206800F0C1FAA0660821206800F0BCFA80
:1020D000E0660C21206800F0B7FA20670421206830
:1020E00000F0B2FA000DE06404A92000FFF730FE12
:1020F000002802D05FF0805012E0226D120400230D
:10210000206800F052FB00280AD1211D83B06846E8
:10211000182200F0D7F90EBC206800F053FA002016
:1021200010B010BD7CB505000020009000260024F2
:10213000286800F053FB002849D1286800F065FBAF
:10214000002807D00020A864286800F047FB00287A
:1021500002D03CE00120A864A86C012818D100211D
:10216000286800F06AFB002812D05FF080502EE053
:102170001849286800F07AFB002817D10021286848
:1021800000F062FA06003400E40F0098401C009052
:102190004FF6FF70009981420BD2002C09D100212B
:1021A000286800F04AFB0028E2D010E05FF0805081
:1021B0000DE00099814202D35FF0807007E070006B
:1021C00002D50120686401E000206864002076BD2B
:1021D000FF054000000010C138B505000C00002CC0
:1021E00002D15FF000600CE0296D0904286800F05E
:1021F000D0FB002805D10021286800F025FA2060D6
:10220000002032BD1CB50400684600210022C0E950
:1022100000120021206800F017FA800102D54FF467
:10222000006019E06946200000F042F8002813D150
:10223000019840030ED5216D0904206800F0FDFAD5
:10224000002809D10221206800F029FB002803D1D1
:10225000002001E05FF0806016BD1CB504006846F8
:1022600000210022C0E900120021206800F0ECF9F2
:10227000800102D54FF4006019E06946200000F0AB
:1022800017F8002813D10198C0030ED5216D090459
:10229000206800F0D2FA002809D10021206800F05F
:1022A000FEFA002803D1002001E05FF0806016BD37
:1022B000F8B588B004000F0000F0FEFC0500002611
:1022C000684600210022C0E900120821206800F0C1
:1022D000D5F9002878D1216D0904206800F0ADFA05
:1022E000002871D15FF0FF30029008200390302069
:1022F000049002200590002006900120079002A97A
:10230000206800F0A5F9206800F0E2FA00285BD10F
:102310002068406B40F22A41084213D12068406B8C
:10232000800206D5206800F064F9694641F826006D
:10233000761C00F0C1FC401B10F1010FE8D15FF0EA
:10234000004041E02068406B000704D50820216868
:102350008863082038E02068406B800704D502209D
:102360002168886302202FE02068406B800604D536
:10237000202021688863202026E040F23A5021681E
:102380008863684641684268120212F47F0252EA8A
:1023900001624168090A11F47F410A43406852EA28
:1023A00010623A60381D0099009A120212F47F02FE
:1023B00052EA01620099090A11F47F410A43009927
:1023C00052EA11620260002009B0F0BD80B52F48CA
:1023D0002F49016000214160002181600021C1601E
:1023E000002101610021416107218161FFF7C4F9EA
:1023F00001BD10B586B0040001A8142100F062FCF4
:102400002068234988423FD100200090214801687C
:1024100051F400610160006810F4006000900098C1
:10242000002000901C48016851F00401016001681F
:1024300011F004010091009900210091016851F010
:1024400008010160006810F00800009000984FF447
:10245000F850019002200290002003900320049085
:102460000C20059001A90D4800F04CFC04200190BF
:102470000220029000200390032004900C2005907D
:1024800001A9074800F03EFC06B010BD787301209A
:10249000002C01404438024030380240000802401D
:1024A000000C024062B38B0708D0521E11F8013BAA
:1024B00000F8013B00F024808B07F6D1830740F041
:1024C000208000BF103A07D330B4B1E83810103A7A
:1024D000A0E83810F9D230BC530724BFB1E8081087
:1024E000A0E8081044BF51F8043B40F8043BD20771
:1024F00024BF31F8022B20F8022B44BF0B78037065
:102500007047121F17D35B0009D151F8043B20F824
:10251000023B1B0C121F20F8023BF6D20BE051F8D5
:10252000043B00F8013B1B0A20F8023B1B0C121F66
:1025300000F8013BF3D238BF121D521E24BF11F820
:10254000013B00F8013BF8D87047F0B40246106830
:1025500095681318506803EB5004C0071DD54D440F
:102560001BE013F8017B05F8017B491EF9D1A0B1EE
:10257000B60813F8011B06F00306032E08BF13F874
:10258000016B01EB06214942801C294405D011F85A
:10259000016B05F8016B401EF9D1A3420ED013F870
:1025A000016B16F0030104BF13F8011BC91C3009AD
:1025B0000F28DAD113F8010B0F30D6E7F0BC02F187
:1025C0000C0070470EB40022009B01990B43029946
:1025D0000B4303990B4304990B4305990B431A438F
:1025E0004368DFF8C0160B401A434260002003B076
:1025F0007047D0F8800070470968C0F8801000204C
:10260000704780B503210160022000F089FC0020A2
:1026100002BD006810F00300704710B400230A6880
:1026200082604C688A681443CA68144309690C4381
:102630002343C168090B09030B43C360002010BC8E
:1026400070470069C0B270471430091808687047B5
:1026500010B400230A6842624A6882628C68CA68C1
:1026600014430A69144349690C432343C16A31F096
:10267000F7010B43C362002010BC704718B585B04A
:10268000040000911020019040200290002003904F
:102690004FF48060049069462000FFF7BEFF41F2CE
:1026A00088321021200000F0A6F906B010BD18B540
:1026B00085B004000091112001904020029000207C
:1026C00003904FF48060049069462000FFF7A5FF57
:1026D00041F288321121200000F08DF906B010BDC2
:1026E00018B585B00400009112200190402002909E
:1026F000002003904FF48060049069462000FFF7AB
:102700008CFF41F288321221200000F074F906B0EB
:1027100010BD18B585B0040000911820019040202C
:102720000290002003904FF48060049069462000DE
:10273000FFF773FF41F288321821200000F05BF9A7
:1027400006B010BD18B585B00400009119200190A5
:1027500040200290002003904FF48060049069466E
:102760002000FFF75AFF41F288321921200000F0C3
:1027700042F906B010BD18B585B0040000200090E5
:102780000C20019040200290002003904FF48060C4
:10279000049069462000FFF740FFDFF80C250C216C
:1027A000200000F028F906B010BD18B585B004006F
:1027B00000920720019040200290002003904FF4E7
:1027C0008060049069462000FFF727FF41F28832BD
:1027D0000721200000F00FF906B010BD18B585B034
:1027E00004000020009000200190002002900020B2
:1027F00003904FF48060049069462000FFF70DFFBE
:10280000200000F0DFF806B010BD18B585B0040058
:102810004FF4D570009008200190402002900020D5
:1028200003904FF48060049069462000FFF7F5FEA6
:10283000200000F00AFA06B010BD18B585B00400FB
:1028400000913720019040200290002003904FF427
:102850008060049069462000FFF7DFFE41F2883275
:102860003721200000F0C7F806B010BD18B585B0BC
:102870000400DFF838040143009129200190402032
:102880000290002003904FF480600490694620007D
:10289000FFF7C3FE200000F06BF906B010BD18B5BD
:1028A00085B0040000910620019040200290002095
:1028B00003904FF48060049069462000FFF7ADFE5E
:1028C00041F288320621200000F095F806B010BDD4
:1028D00018B585B0040000200090332001904020FE
:1028E0000290002003904FF480600490694620001D
:1028F000FFF793FE41F288323321200000F07BF88D
:1029000006B010BD18B585B004000020009002206C
:102910000190C0200290002003904FF4806004904A
:1029200069462000FFF779FE200000F0F8F806B0B5
:1029300010BD18B585B00400009109200190C02099
:102940000290002003904FF48060049069462000BC
:10295000FFF763FE200000F0E2F806B010BD30B5CE
:1029600085B004000D00002000900320019040205D
:102970000290002003904FF480600490694620008C
:10298000FFF74BFE2A000321200000F013F905B0E9
:1029900030BD18B585B0040000910D200190402095
:1029A0000290002003904FF480600490694620005C
:1029B000FFF733FE41F288320D21200000F01BF8B2
:1029C00006B010BDDFF8E8120968C9084FF47A7242
:1029D000B1FBF2F241F288314A4311004A1E00294C
:1029E00006D0416B0906F8D5C521816300207047E8
:1029F0005FF00040FBE738B504000D00AC4800680C
:102A0000C0084FF47A71B0FBF1F042431000421E4F
:102A100000280CD0606B10F0450FF7D00005F5D4FE
:102A2000606B400706D50420A063042076E05FF0C9
:102A3000004073E0606BC00703D50120A063012054
:102A40006CE0C520A0632000FFF7FBFDEDB2A842BB
:102A500001D0012062E000212000FFF7F5FD95493B
:102A6000084201D1002059E0002802D55FF0007033
:102A700054E0410001D5402050E0810001D5802084
:102A80004CE0C10002D54FF4807047E0010102D54F
:102A90004FF4007042E0410102D54FF480603DE008
:102AA000C10102D54FF4006038E0010202D54FF4B5
:102AB000805033E0410202D54FF400502EE08102F5
:102AC00002D54FF4804029E0C10202D54FF4004006
:102AD00024E0410302D55FF400301FE0810302D5FA
:102AE0005FF480201AE0C10302D55FF4002015E0F6
:102AF000010402D55FF4801010E0410402D55FF4B8
:102B000000100BE0810402D55FF4800006E00007AE
:102B100002D55FF4000001E05FF4803032BD64490B
:102B20000968C9084FF47A72B1FBF2F241F28831B8
:102B30004A4311004A1E00290CD0416B11F0450F89
:102B4000F7D00905F5D4416B490706D50421816307
:102B500004200CE05FF0004009E0416BC90703D599
:102B600001218163012002E0C521816300207047BB
:102B70004F490968C9084FF47A72B1FBF2F241F289
:102B800088314A4311004A1E00290CD0416B11F0D4
:102B9000450FF7D00905F5D4416B490706D5042147
:102BA0008163042005E05FF0004002E0C5218163FD
:102BB0000020704770B505000E0014003C48006806
:102BC000C0084FF47A71B0FBF1F141F28830414313
:102BD0000800411E00280CD0686B10F0450FF7D09C
:102BE0000005F5D4686B400706D50420A8630420CF
:102BF0002AE05FF0004027E0686BC00703D50120A2
:102C0000A863012020E02800FFF71BFDF6B2B042C8
:102C100001D0012018E0C520A86300212800FFF79B
:102C200013FD10F4604F03D1000C208000200BE056
:102C3000410402D54FF4005006E0000402D54FF4E1
:102C4000805001E05FF4803070BD19490968C908FF
:102C50004FF47A72B1FBF2F241F288314A4311002B
:102C60004A1E00290CD0416B11F0450FF7D0090521
:102C7000F5D4416B490706D50421816304200FE098
:102C80005FF000400CE0416BC90703D5012181636F
:102C9000012005E0416B490601D5402181630020F8
:102CA000704700000081FFFF00E1F5050000108083
:102CB0002C00002008E0FFFD01480068704700BFBD
:102CC00094750120002200F03FB930B4002513E0D4
:102CD00050F8042BD30744BFA9F101039A18091F28
:102CE000042942F8045BFAD213468C0744BF1580CE
:102CF0009B1CC90748BF1D7050F8041B0029E7D171
:102D000030BC7047F8B4002200220022002337E0D4
:102D1000082704E0DFF8D0219042F9D10727FFB25D
:102D200013F00302D2B2920097403E431A00920879
:102D300045F82260DFF8B4512A68A2434E68F603D2
:102D400000D522432A60DFF8A8512A68A2434E68C2
:102D5000B60300D522432A60DFF898512A68A243BF
:102D60004E68F60200D522432A60DFF88C512A68AB
:102D7000A2434E68B60201D5144322002A605B1CB0
:102D8000102B80F0A580012515FA03F20C68144081
:102D90009442F4D14A68012A08D04A68022A05D030
:102DA0004A68112A02D04A68122A16D18668032777
:102DB0001A00D2B252009740BE43CF681A00D2B276
:102DC000520097403E43866042689D40AA434D684A
:102DD000C5F300159D402A434260C66803251A00CA
:102DE000D2B2520015FA02F296438F681A00D2B29C
:102DF000520097403E43C6604A68022A02D04A68A1
:102E0000122A17D11A00D20800EB8202166A0F2785
:102E100013F00702D2B292009740BE430F6913F03D
:102E20000702D2B2920097403E431A00D20800EB4C
:102E30008202166206681A00D2B252009540AE4372
:102E40000D7915F003051A00D2B2520095402E43B9
:102E500006604A68D20092D500220092274A15687F
:102E600055F480451560126812F480420092009A71
:102E7000234D1A00920855F822600F2713F0030221
:102E8000D2B292009740BE431E4A904201D1002721
:102E900045E71D4A904201D1012740E71B4A904275
:102EA00001D102273BE71A4A904201D1032736E7B6
:102EB000184A904201D1042731E7174A904201D1C4
:102EC00005272CE7154A90427FF424AF062726E712
:102ED000F1BC7047D2B2002A02D089B2816102E00F
:102EE00089B2090481617047001C0240003C014026
:102EF000043C0140083C01400C3C01404438024085
:102F0000083801400000024000040240000802406E
:102F1000000C024000100240001402400018024061
:102F200038B50400FFF7C8FE050014F1010F02D008
:102F3000044800782418FFF7BFFE401BA042FAD3D4
:102F400031BD00BF6901002000B500BF13009646E7
:102F50009446103928BFA0E80C50FAD85FEA417CAB
:102F600028BF0CC048BF40F8042BC90728BF20F871
:102F7000022B48BF00F8012B00BD70477047704717
:102F8000704770477047704700215FF0FF32C36899
:102F90005A607FF08042C3685A6151F0004151F499
:102FA0000061C068816170477CB50400002500267F
:102FB00000200090032000F06EFDE06800690090A2
:102FC000761CBB498E4215D20098C00F0028F1D064
:102FD0000020009A52F001020092009AE3681A6100
:102FE000E26812690092401C884205D2009AD2071A
:102FF000F6D401E0002004E0032000F04CFD28009E
:10300000C0B276BD30B405000020EC78002C13D19E
:10301000002400249BB2DB1C042493FBF4F3D2B203
:1030200005EB8202D2F8D040002203E00D68256053
:10303000521C091D9A42F9D3C0B230BC704710B47B
:10304000002392B2D21C042392FBF3F2D0F8D030CA
:10305000002003E01C680C60401C091D9042F9D35D
:10306000080010BC704730B4002300220024C47054
:1030700001248470402484800C00E4B2012C0DD122
:103080005FF0A0430121C172082101700421417049
:103090004FF4A071C180022101720CE0C9B2002975
:1030A00009D1844B0021C1720C21017006214170AD
:1030B0004FF4A061C180C36013F50061016100217C
:1030C0000EE013EB411414F5106400EB8105AC61C4
:1030D00013EB411414F5306400EB81056C65491C59
:1030E0004478A142EDD313F58061416113F5886105
:1030F000C0F8CC10002108E013EB411414F5A064D3
:1031000000EB8105C5F89040491C0478A142F3D337
:1031100000210AE04FF4805404FB013414F580547C
:1031200000EB8105C5F8D040491C0478A142F1D3D9
:1031300013F56063C0F80C311000C0B230BC7047AA
:1031400070B504000025002000200026207A012808
:1031500025D1E068816B31F48031607A002801D09C
:1031600051F48011E06881630020E068C06830F0AD
:10317000400030F4800030F4003030F40020E1688A
:10318000C8602000FFF710FFE078012823D1052058
:1031900060F3440656F02006E06886601BE0E068B5
:1031A000C06850F04000E168C8602000FFF7FCFEF6
:1031B000002151F4803151F4802151F4002151F467
:1031C0000011607A002801D051F48011E068816319
:1031D000142000F07DFCE078012808D1E0688068C8
:1031E000052161F3440050F02000E1688860280068
:1031F000C0B270BD01000020002252F00102CB6875
:103200009B681A43C9688A60C0B2704701000020F9
:10321000002252F00102CB689B6833EA0202C968BF
:103220008A60C0B270471CB5020000240023002051
:103230000090009850F020000090009861F38A10F0
:1032400000900098D1680861D068006900905B1C0C
:103250001748834205D20098C0F340100028F3D1EC
:10326000FFE7032000F017FC2000C0B216BD1CB51C
:1032700001000024002200200090009850F010006F
:1032800000900098CB681861C86800690090521CD3
:103290000748824205D20098C0F300100028F3D1FD
:1032A000FFE7032000F0F7FB2000C0B216BD0000CE
:1032B000410D03000000044010B50024C268D2682C
:1032C00032F0005232F080420B00DBB2012B02D10F
:1032D00052F0005204E0C9B2002901D152F08042FC
:1032E000C068C260322000F0F3FB2000C0B210BD05
:1032F000C068406910F00100704780B5FFF7F8FF23
:10330000012801D0012000E00020C0B202BD010070
:103310000020C8684069C968896908407047026927
:103320001268C9B261F30102006902607047F8B522
:103330000400002500200020002700260020002097
:10334000D4F80C1108602069006830F4C05021697D
:103350000860E07A01282CD103212000FFF7DFFF6D
:103360008020E1684862402060F31F47802060F3BE
:103370000F07E068876217EB174767F30F064020D7
:1033800060F31F46E068C0F80461300010EB16419E
:10339000C1EA0000402161F31F40E168C1F8080163
:1033A000010011EB1040C0EA010080B2E168C1F8F1
:1033B0000C0110212000FFF736FF2000FFF757FF18
:1033C0000020216908610020216948615FF0FF3019
:1033D0002169886100202169C86100211CE000206A
:1033E0000BE004EB810080690068C00F0028F6D074
:1033F000002050F0804050F0006004EB81029269A0
:10340000106004EB810080690022026104EB8100FE
:103410008069FF228260491C60788142E1D30021EB
:103420001CE000200BE004EB8100406D0068C00F41
:103430000028F6D0002050F0804050F0006004EBEF
:103440008102526D106004EB8100406D0022026128
:1034500004EB8100406DFF228260491C607881424C
:10346000E1D3002050F48070216909698143084349
:1034700021690861E07801280ED1002050F0010098
:1034800050F00200402161F38A0050F48030402166
:1034900061F3594021690863200000F003F8280017
:1034A000C0B2F2BD70B50400002500260020E1681E
:1034B00088617FF08040E16848612000FFF764FD8B
:1034C000E078002801D156F0100656F4006656F454
:1034D000805656F4005656F4802656F4002656F0D0
:1034E0000806E0688069B0430643E068866128000A
:1034F000C0B270BD0100002009698968490811F057
:103500000301002905D0022907D004D3032902D0E2
:1035100004E0032002E0022000E00120C0B2704776
:1035200010B40100002000230A6994688A691268B7
:10353000640814F00304002C04D0022C05D001D33D
:10354000032C05D1D20AD20202E0032464F30A025A
:103550008C69226053F480730A6952689A4313435A
:1035600009694B60C0B210BC704770B400220023E0
:1035700000244B78012B0BD10B7800EB83039E6961
:10358000012591F9003015FA03F363F30F040AE003
:103590000B7800EB83035E6D012591F9003015FA7D
:1035A00003F363F31F443568C5F3C033002B0DD11B
:1035B0008B6863F30A05CB7863F39345C98861F39D
:1035C000995555F0805555F4004535600169C96934
:1035D0000C430069C4611000C0B270BC704770B485
:1035E0000022002300244D78012D0BD10D7800EB33
:1035F0008505AD69012691F9001016FA01F161F314
:103600000F040AE00D7800EB85056D6D012691F938
:10361000001016FA01F161F31F4433F400432B60EC
:103620000169C96931EA04040069C4611000C0B2CB
:1036300070BC704770B500240022002200224A7836
:10364000012A62D10A7800EB8202926913680A7833
:1036500000EB8202926915694A69002A05D1ED0CD6
:10366000ED04012262F3DC4511E04A6962F31205C0
:103670004E698A689619761E8A68B6FBF2F262F382
:10368000DC45CA78012A02D1012262F35E750A780C
:1036900000EB820292691561C278012A06D10A788C
:1036A00000EB820292690D6955610FE0CA78012A28
:1036B0000CD04A69002A09D0012591F9002015FA99
:1036C00002F205696D6B2A4305696A63CA78012AAB
:1036D00008D102699268D20502D453F0005301E088
:1036E00053F0805353F0806353F000430A7800EBAB
:1036F000820292691360CA78012A4BD14B699BB24E
:103700000A78C968FFF77EFC44E00A7800EB820281
:10371000526D13680A7800EB8202526D15694A698E
:10372000002A06D18A6862F31205012262F3DC45A1
:103730000EE04E698A689619761E8A68B6FBF2F228
:1037400062F3DC45C5F3C9468A68564366F3120541
:103750000A7800EB8202526D1561C278012A05D108
:103760000A7800EB8202526D0D695561CA78012A10
:1037700007D14A79002A02D053F0005301E053F0F8
:10378000805353F0806353F00043097800EB8100CD
:10379000406D03602000C0B270BDFCB40022002464
:1037A0000023002300934B78012B47D185692E68B5
:1037B0002B6900934B69002B09D1009BDB09DB01CE
:1037C00000930123009F63F3D447009715E08B68B3
:1037D0004F69BB4207D28B684B618B68009F63F3D4
:1037E0000607009704E04B69009F63F30607009704
:1037F0000123009F63F3D4470097009B2B61C3789C
:10380000012B05D10B7800EB83039B690F695F6186
:1038100056F0806656F000462E60C378002B4AD1E1
:103820004B69002B47D0012391F900108B401C43BA
:103830000169496B0C43006944633CE00B7800EB81
:1038400083035B6D1C680B7800EB83035B6D1B6966
:1038500000934B69002B0AD18B68009D63F306052A
:1038600000950123009D63F3D44500950BE08B6820
:103870004B618B68009D63F3060500950123009D55
:1038800063F3D44500950B7800EB83035B6D009DDB
:103890001D61C378012B05D10B7800EB83035B6DB1
:1038A0000D695D6154F0806454F00044097800EBC8
:1038B0008100406D04601000C0B2F6BC7047020089
:1038C000002000234B78012B0ED1097802EB8101F7
:1038D0008B691A681100C90F002901D052F080428B
:1038E00052F400121A6007E0097802EB81014A6D78
:1038F000116851F400111160C0B2704710B4020099
:10390000002000234B78012B04D10B7802EB8302BB
:10391000936903E00B7802EB8302536D1A6832F46B
:103920000012CC78032C02D0C978022901D152F0C0
:1039300080521A60C0B210BC7047010008698069EB
:103940000969C9690840000C70470200C9B202EB5E
:103950008100406D80681169496908407047010025
:10396000086980690969C969084080B2704782B0F6
:1039700000210091009951F0404100910121009AED
:1039800061F3D44200921821009A61F3060200927A
:103990000099426D1161C17801290CD1002100F616
:1039A000E421426D5161416D096851F000415FF0C1
:1039B0008021406D016002B07047000010B586B0F4
:1039C00068461421FFF77EF9002005903A48016807
:1039D00051F001010160006810F0010005900598A8
:1039E0004FF400600090032003900220019000201B
:1039F00002900A200490314C69462000FFF782F9BA
:103A00004FF480500090032003900220019000208A
:103A100002900A20049069462000FFF773F94FF4E2
:103A2000007000900320039000200190002002907D
:103A300069462000FFF766F94FF48060009012207D
:103A4000019001200290032003900A20049069460F
:103A50002000FFF757F9002005901948016851F43C
:103A600080410160006810F4804005900598154879
:103A7000016851F08001016006B010BD80B50620DC
:103A800000F095F802220121432000F094F8432031
:103A900000F0A2F801BD00210B4A12680B4BB2FBEB
:103AA000F3F200FB02F00722B0FBF2F0FFE7491C43
:103AB0008842FCD2704700003038024000000240CB
:103AC00044380240343802402C00002040420F00AD
:103AD00080B54FF47A714843FFF7DDFF01BD000068
:103AE00010F00700414B1A684FF6FF010A404049A9
:103AF00051EA00210A431A6070473C480068C0F34D
:103B000002207047010049B2002908D4012210F0B8
:103B10001F018A40374940B2400941F820207047D0
:103B2000020052B2002A04D40901334A40B21154AF
:103B300007E00901314A40B210F00F00104400F8CC
:103B4000041C704710B410F00700D0F10703052BD8
:103B500001D3042301E0D0F10703041D072C01D297
:103B6000002000E0C01E012414FA03F35B1E19407C
:103B7000814014FA00F0401E1040084310BC70470A
:103B800080B5411EB1F1807F01D301200EE0401EBF
:103B90001B4908600F215FF0FF30FFF7C1FF0020D5
:103BA00018490860072018490860002002BD80B548
:103BB000FFF796FF01BD70B504000D001600002050
:103BC000FFF79BFF32002900FFF7BCFF0100200038
:103BD00040B2FFF7A5FF70BD80B540B2FFF792FF7E
:103BE00001BD80B5FFF7CCFF02BD00000CED00E089
:103BF0000000FA0500E100E000E400E018ED00E05C
:103C000014E000E018E000E010E000E080B50B00F8
:103C10001100DFF8282710600878002816D0032844
:103C200019D012281CD01A2829D01B281DD01E28D4
:103C300020D023282DD0252830D0282833D02A285A
:103C400036D02F2839D05A281ED03BE01800C0B2F9
:103C500000F041F83EE01800C0B200F03FF939E052
:103C60001800C0B200F05EF834E01800C0B200F0F6
:103C70008DF92FE01800C0B200F088F92AE0180092
:103C8000C0B200F0FFF825E01800C0B200F010F953
:103C900020E01800C0B200F0AFF81BE01800C0B27E
:103CA00000F06EF816E01800C0B200F075F911E0EF
:103CB0001800C0B200F0E1F90CE01800C0B200F04A
:103CC0006EFA07E0202205211800C0B200F046F984
:103CD0005FF0FF3002BD10B50400DFF8643698686D
:103CE000002807D020220521587B00F037F95FF02B
:103CF000FF3016E02000C0B2DFF848160968896876
:103D00008847002808D03A2202212000C0B200F0E3
:103D100025F95FF0FF3004E00020DFF82C16088062
:103D2000002010BD10B44A78D20703D5DFF81C2656
:103D3000072311E0DFF80C261268D369C0B22422F1
:103D4000504303EB000213795B1D18000C7980B21D
:103D5000A4B2A04200D30B79DFF8EC05038008E0A1
:103D60005B1E180080B2105CDFF8E4151C00A4B2E2
:103D70000855180080B20028F2D1002010BC70470E
:103D800070B50600DFF8CC45DFF8CC552A002100DD
:103D90003000C0B2DFF8AC351B685B68984700287C
:103DA00008D03A2202213000C0B200F0D7F85FF00C
:103DB000FF3020E0DFF898052168491E090E0170E8
:103DC0002168491E090C41702168491E090A817049
:103DD0002168491EC1702968090E01712968090C02
:103DE00041712968090A81712968C1710820DFF8C9
:103DF00058150880002070BD1CB50400002006E0A6
:103E00000021DFF84C2503009BB2D154401C010077
:103E100089B20C29F4DB01AA69462000C0B2DFF8A0
:103E200024351B685B689847002808D03A22022195
:103E30002000C0B200F092F85FF0FF3021E0DFF820
:103E400010050821C1700099491E090E01710099E1
:103E5000491E090C41710099491E090A8171009996
:103E6000491EC171022101720199090C4172019927
:103E7000090A81720199C1720C20DFF8CC14088004
:103E8000002016BD0821DFF8C00401800AE0491EA9
:103E9000DFF8C8040A0092B2805CDFF8B4240B009B
:103EA0009BB2D054080080B20028F0D100207047A7
:103EB0000821DFF8940401800AE0491EDFF8A0041D
:103EC0000A0092B2805CDFF888240B009BB2D054C9
:103ED000080080B20028F0D10020704710B4002004
:103EE00006E00022DFF868340400E4B21A55401CF2
:103EF0000200D2B2122AF4DBDFF8540470220270FE
:103F00000C22C271DFF85C241378DFF85C4424785B
:103F1000A34217D0DFF85434147813F83440847077
:103F2000147803EBC40464790473147803EBC403BA
:103F30001B7943731078401C10701078042801D14D
:103F400000201070DFF80004122202800A79132A80
:103F500001DA09790180002010BC704710B4DFF845
:103F60000804DFF80834047803F83410017803EB10
:103F7000C101D2B212024A600178491C0170017875
:103F8000042901D10021017010BC70470020DFF826
:103F9000B8130880002070472DE9F84304008846D4
:103FA000DFF8CC9399F8000000285CD1DFF890533B
:103FB000287B000607D420220521687BFFF7CEFF6F
:103FC0005FF0FF3057E02000C0B2DFF878130968D7
:103FD00089688847002808D03A2202212000C0B210
:103FE000FFF7BCFF5FF0FF3045E0DFF8886398F82B
:103FF000020098F80310090451EA006198F80400DF
:1040000051EA002198F8050001433160DFF8687338
:1040100098F8070098F8081051EA002139603A68CA
:1040200092B231682000C0B200F0D7F8002802D563
:104030005FF0FF301FE0022089F80000C6493268B7
:104040000868424332603A68086842433A60A868A8
:104050003968884207D020220521687BFFF77EFF60
:104060005FF0FF3007E04FF48050B7490880200030
:10407000C0B200F0C3F8BDE8F2832DE9F8430600B2
:104080000F00BB4C2078002840F08380AC4D287B8B
:10409000000607D520220521687BFFF75FFF5FF050
:1040A000FF307AE0DFF89C823000C0B2D8F8001010
:1040B00089688847002808D03A2202213000C0B21F
:1040C000FFF74CFF5FF0FF3067E03000C0B2D8F878
:1040D0000010C9688847002808D027220221300034
:1040E000C0B2FFF73BFF5FF0FF3056E0DFF884829D
:1040F000B878F978090451EA0061387951EA002169
:1041000078790143C8F80010DFF86C92F879397AB1
:1041100051EA0021C9F80010D9F8002092B2D8F86D
:1041200000103000C0B200F058F8002802D55FF04F
:10413000FF3032E08849D8F8002008684243C8F8C8
:104140000020D9F8002008684243C9F80020A86878
:10415000D9F80010884207D020220521687BFFF79C
:10416000FDFE5FF0FF3018E001202070D9F800005C
:10417000B0F5805F02D2D9F8003001E04FF48053EF
:104180009BB2734A02216D48006800F09DF900203F
:1041900003E03000C0B200F07BF8BDE8F28380B5E8
:1041A0004978890707D524220521C0B2FFF7D6FE3A
:1041B0005FF0FF3010E070490A6892B26D490968FB
:1041C000C0B200F00AF8002802D55FF0FF3003E02B
:1041D00000205D490880002002BD80B55D4B1B6852
:1041E00011FA82F18B4207D221220521C0B2FFF7DA
:1041F000B5FE5FF0FF3000E0002002BD2DE9F04188
:1042000006005D4C2068B0F5805F01D2256801E0B2
:104210004FF480554E4FDFF85C814F480168B5FB85
:10422000F1F39BB2D8F800100068B1FBF0F239004E
:104230003000C0B2DFF80CC1DCF800C0DCF810C000
:10424000E047002808D5112204213000C0B2FFF752
:1042500085FE5FF0FF3019E02B003A0082213748DD
:10426000006800F055F9D8F800002818C8F80000D8
:104270002068401B2060414881684D1B8560206894
:10428000002802D103203A4908700020BDE8F081DF
:104290002DE9F0410700384C2068B0F5805F01D26D
:1042A000266801E04FF48056294DDFF8C8802A487F
:1042B0000168B6FBF1F39BB2D8F800100068B1FBBF
:1042C000F0F229003800C0B2DFF878C0DCF800C096
:1042D000DCF814C0E047002808D503220421380088
:1042E000C0B2FFF73BFE5FF0FF3024E0D8F80000DB
:1042F0003018C8F800002068801B20601F488168C3
:104300008E1B86602068002805D100210B480068BC
:1043100000F053FA0EE02068B0F5805F01D2236808
:1043200001E04FF480539BB22A0002210348006849
:1043300000F0CAF80020BDE8F0810000B47501204B
:104340002C75012028000020C6750120506F000840
:104350006C550120A8750120A4750120586F000834
:10436000606F0008D3750120D47501204C750120C1
:10437000D1750120AC750120B07501206C7501204C
:1043800010B50400C9B22000FEF76DFE012084F8CC
:104390002406002084F82606002012E0282101FBD4
:1043A00000F1214401F2346101224A700870C88092
:1043B0000022CA7040228A600022CA6000224A613C
:1043C000401C61788842E9D3002012E0282101FBDB
:1043D00000F1214401F68C0100224A700870C88067
:1043E0000022CA7040228A600022CA6000224A610C
:1043F000401C61788842E9D32000FEF707FF2000C7
:10440000FEF79EFE00212000FEF756FF2000FEF77B
:104410008EFF2000FEF7EEFE10BD38B50C00E4B2B2
:1044200024060AD50D00EDB215F07F05282465435A
:1044300000EB050404F2346409E00D00EDB215F060
:104440007F052824654300EB050404F68C0411F075
:104450007F052570C9B2C909617092B2A260E3708C
:104460006178002901D02178E180DBB2022B01D1F3
:10447000002121712100FFF778F8002032BD80B5BE
:104480000A001100C9B209060AD51300DBB213F005
:104490007F0328214B4300EB030101F2346109E063
:1044A0001300DBB213F07F0328214B4300EB030121
:1044B00001F68C0112F07F030B70D2B2D2094A7060
:1044C000FFF78DF8002002BD38B50C002500EDB2D5
:1044D00015F07F0528214D4300EB050101F68C0105
:1044E000CA609BB24B6100238B6100234B7014F0B8
:1044F0007F040C70C378012B00D10A610A78002A6E
:1045000002D1FFF74AF901E0FFF794F8002032BD2D
:1045100038B50C002500EDB215F07F0528214D437C
:1045200000EB050101F2346101254D7014F07F04A8
:104530000C70CA600A6100228A614B610A78002A05
:1045400002D1FFF72AF901E0FFF774F8002032BD2D
:1045500080B50A00D2B212060AD50B00DBB213F006
:104560007F032822534300EB030202F2346207E088
:104570000B00DBB22822534300EB030202F68C024D
:104580000123937011F07F031370C9B2C9095170F0
:104590001100FFF794F9002002BD80B50A00D2B2E5
:1045A00012060AD50B00DBB213F07F032822534317
:1045B00000EB030202F2346207E00B00DBB22822B8
:1045C000534300EB030202F68C020023937011F0B8
:1045D0007F031370C9B2C90951701100FFF78EF93A
:1045E000002002BD80B50A00D2B2120605D5C9B2BC
:1045F00011F07F01FEF717FE01E0FEF738FE002004
:1046000002BD0022C9B261F30A12016909680A43B6
:10461000006902607047000010B5040000208C495A
:10462000087000208B49087000208B4909680968D0
:10463000884702212000FFF7D5FF82212000FFF7E5
:10464000D1FF1F23854A02212000FFF73DFF10BD47
:1046500080B500217E4A117001217E4A11701F230E
:104660007E4A0221FFF730FF01BD00207849087023
:10467000704710B5040076480078801E03D0401EB5
:1046800001280ED912E0754810F10F02417B20007D
:10469000FFF7BCFA002803D50121200000F08DF8B7
:1046A00004E00021200000F088F8FFE710BD10B5FD
:1046B000040067480078002802D0012804D011E0E7
:1046C000200000F010F80DE0644810F10F02417B6B
:1046D0002000FFF79BFA002803D50121200000F0FD
:1046E0006CF8FFE710BD38B504005D485B4D6968A4
:1046F0004160A96881600221200000F021F91F2893
:104700000CD128685749884208D1687B022805DA0D
:10471000A87B002802D0A87B11280BDB20220521D2
:10472000687BFFF71BFC02204A490870200000F05C
:1047300059F826E015F10F02697B2000FFF766FAB1
:10474000002803D5200000F04DF81AE04048017819
:10475000022916D00178012913D00078032810D03F
:1047600041490888002805D00A884049200000F007
:1047700009F806E00888002803D10021200000F095
:104780001CF831BD38B51300344A94681D00ADB231
:10479000AC4201D29368FFE7314CA5681A0092B28F
:1047A000AD1AA560002222730422294C22709BB20C
:1047B0000A008221FFF7ACFE31BD10B50400284A83
:1047C0002B48106011730020214908700D238221AD
:1047D0002000FFF79DFE1F23204A02212000FFF743
:1047E00073FE10BD38B504001C4D287B00280AD18B
:1047F000A868002807D017480078002803D10221B4
:104800002000FFF7A5FE82212000FFF7A1FE11483E
:104810000078022805D11F232A0002212000FFF77B
:1048200053FE31BD10B50B4C2278022A05D18221EE
:10483000FFF78EFE0020207008E0C9B2090605D5FA
:104840002178012902D00121FFF7B7FF10BD000038
:10485000D1750120D2750120280000202C7501207F
:104860006C75012055534243C67501206C550120DB
:104870005553425310B5130000241A0092B2C0F8E9
:1048800054261A0092B2C0F85026022280F8122153
:104890009BB20A000021FFF73BFE2000C0B210BD12
:1048A00010B5130000249BB20A000021FFF730FE70
:1048B0002000C0B210BD10B5130000241A0092B23F
:1048C000C0F8AC281A0092B2C0F8A828032280F8D9
:1048D00012219BB20A000021FFF7F6FD2000C0B2B2
:1048E00010BD10B5130000249BB20A000021FFF791
:1048F000EBFD2000C0B210BD38B504000025042037
:1049000084F812010023002200212000FFF700FE9E
:104910002000FFF72CF82800C0B232BD38B50400E3
:104920000025052084F81201002300220021200028
:10493000FFF7CAFD2000FFF71AF82800C0B232BD09
:10494000C9B2282251430844D0F8A40880B2704765
:1049500010B500244A78002A18D0012A1CD0032A56
:1049600017D0052A09D0062A04D0082A0BD0092A14
:1049700006D014E000F0FCF813E000F087F910E036
:1049800000F0B0F90DE000F003FA0AE000F01CFAC4
:1049900007E000F03BFA04E000F079FA01E000F0F3
:1049A000B2FA2000C0B210BD70B504000E000025A0
:1049B00094F82406032818D13079022810DA31003F
:1049C0002000D4F8FC2A92689047F08800280BD188
:1049D0002800C0B2002807D12000FFF78DFF03E0B8
:1049E0003100200000F08FFA03E03100200000F0D9
:1049F0008AFA2800C0B270BD70B505000E00002410
:104A0000B1887078002868D0012834D0032840F09D
:104A1000AC8095F82406022802D003280DD025E0AA
:104A20000800C0B2002807D00800C0B2802803D018
:104A3000C9B22800FFF78CFD1CE0708800280BD15C
:104A40000800C0B2002807D00800C0B2802803D0F8
:104A5000C9B22800FFF77CFD31002800D5F8FC2AF8
:104A6000926890472800FFF747FF03E031002800D5
:104A700000F049FA79E095F82406022802D00328CC
:104A80000DD025E00800C0B2002807D00800C0B251
:104A9000802803D0C9B22800FFF75AFD1CE07088B7
:104AA000002814D10800C0B200280DD00800C0B200
:104AB000802809D0C9B22800FFF76FFD3100280017
:104AC000D5F8FC2A926890472800FFF715FF03E00D
:104AD0003100280000F017FA47E095F82406022874
:104AE00002D003280DD03BE00800C0B2002807D058
:104AF0000800C0B2802803D0C9B22800FFF728FD03
:104B000032E00800C0B2000612D5C9B211F07F0130
:104B10002820414305EB010090F83606002803D019
:104B20000120B649086015E00020B449086011E092
:104B300008060FD4C9B22820414305EB010090F8C4
:104B40008E08002803D00120AC49086002E0002054
:104B5000AA4908600222A9492800FFF78BFE03E05A
:104B60003100280000F0CFF9FFE72000C0B270BD8F
:104B700038B504000D00688880B2000AC0B2012870
:104B800008D0022823D003282CD0062865D0072877
:104B900068D06CE06946A078D4F8042B126890477E
:104BA000E988402903D094F82416012902D108216C
:104BB000ADF80010BDF80010002966D0E988002982
:104BC00063D0BDF80010EA88914255D257E069469B
:104BD000A078D4F8FC2A926A904702214170C4F868
:104BE000100BE7E7A878002808D0022814D00CD3CF
:104BF00004281FD017D3052823D029E06946A078C0
:104C0000D4F8042B52689047D4E76946A078D4F8CA
:104C1000042B92689047F7E76946A078D4F8042BF4
:104C2000D2689047F0E76946A078D4F8042B12695F
:104C30009047E9E76946A078D4F8042B5269904779
:104C4000E2E76946A078D4F8042B92699047DBE745
:104C50002900200000F057F917E02900200000F09B
:104C600052F912E02900200000F04DF90DE0290072
:104C7000200000F048F908E0E988ADF80010BDF820
:104C8000002001002000FFF7F5FD31BD38B505001B
:104C90008888002822D1C88800281FD18C7814F079
:104CA0007F0495F82406032803D1280000F02BF98F
:104CB00017E085F826462100C9B22800FFF7A1FCBD
:104CC0002800FFF719FEE4B2002C03D0022085F87B
:104CD000240606E0012085F8240602E0280000F002
:104CE00012F931BD38B50400454D48882870287840
:104CF000022803DB200000F006F948E094F82406BF
:104D0000022802D0032815D03EE0287800280DD0D4
:104D1000287884F81101032084F8240629782000DB
:104D200000F06AFA2000FFF7E7FD02E02000FFF73D
:104D3000E3FD2CE0287800280DD1022084F8240619
:104D4000287884F811012978200000F063FA200007
:104D5000FFF7D2FD17E0287894F8111188420FD0A0
:104D600094F81111200000F055FA287884F8110108
:104D70002978200000F040FA2000FFF7BDFD02E096
:104D80002000FFF7B9FD02E0200000F0BCF831BDC3
:104D900080B5CA88012A02D000F0B5F813E090F877
:104DA0002426022A02D0032A05D00AE0012215494E
:104DB000FFF760FD07E0012200F21111FFF75AFD35
:104DC00001E000F0A0F801BD80B590F82426921E05
:104DD000012A0FD8D0F82C16002903D003210A4A43
:104DE000116002E00121084A116001220649FFF723
:104DF00041FD01E000F087F801BD0000B875012019
:104E0000D5750120BC750120C075012010B50400C6
:104E10000020488801280BD10120C4F82C0620006E
:104E2000D4F8FC2A926890472000FFF765FD2DE03A
:104E3000488802282AD10879000627D120694068CD
:104E4000898889B2090AC9B2012907D019D303296F
:104E50000CD007D3052911D00CD312E0012161F346
:104E600006100EE0022161F306100AE0032161F34F
:104E7000061006E0042161F3061002E0052161F34B
:104E80000610216948602000FFF736FD10BD10B5FF
:104E9000040094F82406801E01280ED848880128B2
:104EA0000AD10020C4F82C062000D4F8FC2A92680D
:104EB00090472000FFF720FD02E0200000F023F8DB
:104EC00010BD90F8E42A0A7090F8E52A4A7090F82C
:104ED000E62A90F8E73A1B029A184A8090F8E82AE6
:104EE00090F8E93A1B029A188A8090F8EA2A90F81A
:104EF000EB3A1B029A18CA80C988C0F858160121DB
:104F000080F81211704710B504000878000604D527
:104F100080212000FFF71CFB0BE0C888002804D18B
:104F200080212000FFF714FB03E000212000FFF7A1
:104F30000FFB2000FEF71BFD10BDF8B504000D00AF
:104F400017000026002C1ED0200000F01DF84000A5
:104F5000801C388038883100C9B26854761C032020
:104F60003100C9B26854761C0AE020783100C9B219
:104F70006854641C761C00203100C9B26854761C49
:104F800020780028F1D1F1BD0200002001E0401C92
:104F9000521C11780029FAD1C0B270472DE9F041B6
:104FA00004000D0016001F00DDF818802000FEF739
:104FB00005FD200000F014F8C4F8FC7AC4F8008B5A
:104FC000C4F8046B2900C9B22000FFF7D9F9D4F85E
:104FD000000B006880472000FEF750FDBDE8F0811F
:104FE000002070471CB5040069462000FFF769FFE8
:104FF0009DF8000010F01F00C0B2002803D0022866
:105000000BD005D30EE069462000FFF7A1FC10E0AD
:1050100069462000FFF7C8FC0BE069462000FFF757
:10502000EBFC06E09DF8001011F080012000FFF776
:105030008FFA002016BD10B504000800C0B2002889
:1050400033D104F68C0194F8120103283CD188680E
:10505000CA69904217D2CA698868121ACA61E07890
:10506000012803D1C8688A681044C860C8698A6882
:10507000904201D2CA6900E08A6892B2C9682000F1
:10508000FFF72FFC20E0D4F8FC0A0069002808D0C4
:1050900094F82406032804D12000D4F8FC1A0969E6
:1050A00088472000FFF728FC0EE0D4F8FC0A80694E
:1050B000002809D094F82406032805D1C9B220009D
:1050C000D4F8FC2A92699047002010BD38B504003E
:1050D0000800C0B2002845D104F2346594F81201EA
:1050E00002284ED1A868E969884211D2E969A86806
:1050F000091AE961E078012803D1E868A968084441
:10510000E860EA6992B2E9682000FFF7C9FB38E07D
:10511000286AA968B0FBF1F201FB120000280FD148
:10512000286AA96888420BD3286A696A884207D22C
:10513000002200212000FFF7B3FB0020686220E07E
:10514000D4F8FC0AC068002808D094F82406032884
:1051500004D12000D4F8FC1AC96888472000FFF762
:10516000DDFB0EE0D4F8FC0A4069002809D094F871
:105170002406032805D1C9B22000D4F8FC2A5269BC
:105180009047002032BD10B50400002340220021CA
:105190002000FFF742F90023402280212000FFF782
:1051A0003CF9012084F82406A078D4F8001B496853
:1051B0008847002010BD10B50400D4F8000B00692A
:1051C0008047032084F82406002010BD80B5042108
:1051D00080F82416D0F8000BC0688047002002BD7C
:1051E00080B5D0F8FC1AC969002903D0D0F8FC1AA0
:1051F000C9698847002002BD10B50400C9B220006B
:10520000D4F8FC2A12689047D4F8000B80688047D5
:10521000002010BD80B5C9B2D0F8FC2A5268904772
:10522000002002BD80B5D0F8FC1A096A884700202A
:1052300002BD80B5D0F8FC1A496A8847002002BD3B
:1052400070B5040000262000FEF757F8002843D070
:105250002000FEF75CF80500C5F3C040002803D02D
:10526000200000F0D6F80643C5F38040002803D0A4
:10527000200000F094F806432800C00F002803D057
:10528000200000F02BF80643C5F3C020002803D00F
:10529000200000F047F80643C5F3C000002803D003
:1052A000200000F019F90643C5F30010002803D0D0
:1052B000200000F01FF90643C5F30030002803D09A
:1052C000200000F0BEF90643C5F34030002803D0AB
:1052D000200000F00FFA0643300070BD10B5040046
:1052E000A07A002808D0D4F80C0130F00200400861
:1052F0004000D4F80C110860002050F00100216932
:10530000496831EA0000216948602000DFF8DC13B9
:10531000096889698847002050F00040E1684861C9
:10532000012010BD1CB5040000208DF8000094F889
:1053300024068DF800002000DFF8B01309684969E1
:10534000884720698168002050F40060E26850615D
:10535000A07A002821D0C8071FD594F82706012875
:105360001BD19DF80000032817D1002050F0010048
:10537000D4F80C1109680143D4F80C21116050F0E5
:105380000200D4F80C1109680843D4F80C11086025
:10539000D748016851F006010160012016BD70B5C3
:1053A0000500002600202800FEF7D9FA04002CE0B2
:1053B0003100280000F0EEF8002050F0800005EBEE
:1053C0008601896988601EE0E0071CD53100C9B2FA
:1053D000280000F0B4F9C007EAD50120B0402969DF
:1053E000496B31EA000029694863002050F0010050
:1053F00005EB8601896988603100C9B22800BB4A83
:10540000126852689047761C6408002CDCD1012099
:1054100070BDF8B50600002400203000FEF78DFABC
:10542000050055E0E80751D52100C9B23000FEF76C
:105430008CFA0700F8072ED5002757F0010706EB76
:105440008400406D8760F078012811D106EB84005C
:10545000406D0069282101FB04F23244D2F89428FF
:105460004003400B101A01FB04F13144C1F8A408B9
:105470002100C9B230009D4A126812689047F07846
:10548000012808D1002C06D196F81201052802D176
:105490003000FEF76CFAC7F34000002806D0002762
:1054A00057F0020706EB8400406D8760C7F3C00029
:1054B00000280BD030008D49096889688847002092
:1054C00050F0080006EB8401496D8860641C6D088B
:1054D000002DA7D10120F2BD10B5040020008349A2
:1054E0000968C9688847002050F00800E1684861F1
:1054F000012010BDF8B50400002555F01005E06846
:105500008069A843E1688861E068066A16F00F01C7
:105510002820414304EB010000F68C073000400CCA
:1055200010F00F00012808D0022807D003281CD053
:1055300004281BD006281AD025E024E030004004BF
:10554000400D002810D0C6F30A1292B2F96820006C
:10555000FDF775FDF868C6F30A110844F860B969EB
:10556000C6F30A104118B9610DE00CE00BE0082207
:1055700004F6E4212000FDF762FDB969C6F30A10C4
:105580004118B961FFE7E06880690543E06885611B
:105590000120F2BD2DE9F04104000D0000200020A3
:1055A000282000FB05F0204400F234667069B769DA
:1055B000C71BB068B84200D2B768FF1CBF0804EB35
:1055C00085008069806903E004EB8500806980695B
:1055D00080B2874232D2B069716988422ED2706936
:1055E00000282BD07069D6F81880B0EB0808B06896
:1055F000404501D2D6F8088018F10307BF0843469A
:105600009BB22A00D2B2F1682000FDF7FBFCF068E3
:105610004044F060B06918EB0008C6F81880B06923
:1056200071698842D0D3012196F9000011FA00F087
:105630002169496B31EA0000216948630120BDE816
:10564000F081F8B504000021002500260027002085
:10565000002051F001012069406830EA0101206911
:10566000416000212000FDF7DEFD002009E0FF2160
:1056700004EB80029269916004EB8002526D9160AC
:10568000401C61788842F2D35FF0FF302169886165
:10569000012060F30F05012060F31F452069C561FB
:1056A00056F0080656F0010656F0020620694661DB
:1056B00057F0010757F0080757F002072069076104
:1056C0002069006830F4FE60216908602000FEF760
:1056D0004EF9002050F48050E168486120000349F1
:1056E0000968096988470120F2BD00001401002003
:1056F00010ED00E038B504002000FDF711FFE06870
:10570000C5682000FDF7F6FE032808D10020A07030
:105710004FF40070A080092060F38D2506E0012081
:10572000A0704020A080052060F38D25E068C56052
:10573000002050F40050E1684861012032BD026948
:10574000126903695B6BCB40DB0113F080031A43E2
:10575000C9B200EB8100806980681040704700008A
:105760002DE9FC410400002C01D10120BBE120788F
:10577000C0075ED5DFF87403016811F00C0104293D
:1057800009D0006810F00C0008280ED1DFF8600383
:105790000068400209D5DFF85C030068800348D543
:1057A0006068002845D101209DE16068B0F5803F28
:1057B00006D1DFF84003016851F48031016018E040
:1057C0006068B0F5A02F0AD1DFF82803016851F412
:1057D00080210160016851F48031016009E0DFF847
:1057E0001403016831F480310160016831F48021D3
:1057F0000160606800280ED0FDF75EFA0500DFF852
:10580000F4020068800314D4FDF756FA401B6528A3
:10581000F5D3032067E1FDF74FFA0500B5480068AE
:10582000800306D5FDF748FA401B6528F6D3032010
:1058300059E1207880071DD5AC48016811F00C0FA4
:1058400008D0006810F00C0008282AD1A848006889
:10585000400226D4A7480168890704D5E1680129D8
:1058600001D001203FE1016831F0F801226951EADD
:10587000C20101602078000751D5606900283DD041
:1058800001209D490860FDF717FA05009B48006854
:10589000800744D4FDF710FA401B0328F6D30320F9
:1058A00021E1E068002818D0012095490860FDF743
:1058B00003FA05008F480168890706D4FDF7FCF953
:1058C000401B0328F6D303200DE1016831F0F801F5
:1058D000226951EAC2010160CCE7002088490860D2
:1058E000FDF7EAF90500834800688007C2D5FDF797
:1058F000E3F9401B0328F6D30320F4E000207E499F
:105900000860FDF7D9F905007C480068800706D5D6
:10591000FDF7D2F9401B0328F6D30320E3E02078FB
:1059200040076FD50026774D2868C0000BD40020B3
:105930000090286850F080502860286810F080504F
:10594000009000980126704F3868C00511D438685F
:1059500050F480703860FDF7AFF980463868C005B4
:1059600007D4FDF7A9F9B0EB08000328F6D303200C
:10597000B9E0A068012805D16448016851F001012F
:10598000016015E0A068052809D16048016851F060
:1059900004010160016851F00101016008E05B4809
:1059A0000168490849000160016831F004010160A3
:1059B000A06800280FD0FDF77FF907005348006862
:1059C000800718D4FDF778F9C01B41F2893188426D
:1059D000F4D3032087E0FDF76FF907004B48006818
:1059E000800708D5FDF768F9C01B41F2893188426C
:1059F000F4D3032077E0F6B2012E03D1286830F00B
:105A000080502860A06900286CD03848006810F0E9
:105A10000C00082843D0A06902282FD13C4E00205A
:105A20003060FDF749F90700324D2868800106D53E
:105A3000FDF742F9C01B0328F6D3032053E0E169C8
:105A4000206A0143606A51EA8011A06A4008401E42
:105A500051EA0041E06A51EA0061254801600120F5
:105A60003060FDF729F90400286880013AD4FDF779
:105A700023F9001B0328F7D3032034E00020244936
:105A80000860FDF719F904001A480068800129D55B
:105A9000FDF712F9001B0328F6D3032023E0A069C9
:105AA000012801D101201EE01148006810F4800196
:105AB000E269914214D110F03F01226A91420FD164
:105AC00047F6C0710140626A914209D110F4403139
:105AD000A26A914204D110F07060E16A884201D05C
